{
  "_format": "hh-sol-artifact-1",
  "contractName": "TrackRegistry",
  "sourceName": "contracts/TrackRegistry.sol",
  "abi": [
    {
      "anonymous": false,
      "inputs": [
        {
          "indexed": true,
          "internalType": "uint256",
          "name": "trackId",
          "type": "uint256"
        },
        {
          "indexed": true,
          "internalType": "address",
          "name": "owner",
          "type": "address"
        },
        {
          "indexed": false,
          "internalType": "string",
          "name": "ipfsHash",
          "type": "string"
        },
        {
          "indexed": false,
          "internalType": "uint256",
          "name": "timestamp",
          "type": "uint256"
        }
      ],
      "name": "TrackRegistered",
      "type": "event"
    },
    {
      "inputs": [
        {
          "internalType": "uint256",
          "name": "trackId",
          "type": "uint256"
        },
        {
          "internalType": "uint256",
          "name": "amount",
          "type": "uint256"
        }
      ],
      "name": "addRoyalties",
      "outputs": [],
      "stateMutability": "nonpayable",
      "type": "function"
    },
    {
      "inputs": [
        {
          "internalType": "address",
          "name": "owner",
          "type": "address"
        }
      ],
      "name": "getOwnerTracks",
      "outputs": [
        {
          "internalType": "uint256[]",
          "name": "",
          "type": "uint256[]"
        }
      ],
      "stateMutability": "view",
      "type": "function"
    },
    {
      "inputs": [],
      "name": "getTotalTracks",
      "outputs": [
        {
          "internalType": "uint256",
          "name": "",
          "type": "uint256"
        }
      ],
      "stateMutability": "view",
      "type": "function"
    },
    {
      "inputs": [
        {
          "internalType": "uint256",
          "name": "trackId",
          "type": "uint256"
        }
      ],
      "name": "getTrack",
      "outputs": [
        {
          "internalType": "string",
          "name": "ipfsHash",
          "type": "string"
        },
        {
          "internalType": "uint256",
          "name": "pricePerLicense",
          "type": "uint256"
        },
        {
          "internalType": "address[]",
          "name": "creators",
          "type": "address[]"
        },
        {
          "internalType": "uint256[]",
          "name": "shares",
          "type": "uint256[]"
        },
        {
          "internalType": "uint256",
          "name": "totalRoyalties",
          "type": "uint256"
        }
      ],
      "stateMutability": "view",
      "type": "function"
    },
    {
      "inputs": [
        {
          "internalType": "address",
          "name": "",
          "type": "address"
        },
        {
          "internalType": "uint256",
          "name": "",
          "type": "uint256"
        }
      ],
      "name": "ownerTracks",
      "outputs": [
        {
          "internalType": "uint256",
          "name": "",
          "type": "uint256"
        }
      ],
      "stateMutability": "view",
      "type": "function"
    },
    {
      "inputs": [
        {
          "internalType": "string",
          "name": "ipfsHash",
          "type": "string"
        },
        {
          "internalType": "uint256",
          "name": "pricePerLicense",
          "type": "uint256"
        },
        {
          "internalType": "address[]",
          "name": "creators",
          "type": "address[]"
        },
        {
          "internalType": "uint256[]",
          "name": "shares",
          "type": "uint256[]"
        }
      ],
      "name": "registerTrack",
      "outputs": [
        {
          "internalType": "uint256",
          "name": "",
          "type": "uint256"
        }
      ],
      "stateMutability": "nonpayable",
      "type": "function"
    },
    {
      "inputs": [
        {
          "internalType": "uint256",
          "name": "",
          "type": "uint256"
        }
      ],
      "name": "tracks",
      "outputs": [
        {
          "internalType": "uint256",
          "name": "id",
          "type": "uint256"
        },
        {
          "internalType": "string",
          "name": "ipfsHash",
          "type": "string"
        },
        {
          "internalType": "uint256",
          "name": "pricePerLicense",
          "type": "uint256"
        },
        {
          "internalType": "address",
          "name": "owner",
          "type": "address"
        },
        {
          "internalType": "uint256",
          "name": "totalRoyalties",
          "type": "uint256"
        },
        {
          "internalType": "uint256",
          "name": "registeredAt",
          "type": "uint256"
        },
        {
          "internalType": "bool",
          "name": "exists",
          "type": "bool"
        }
      ],
      "stateMutability": "view",
      "type": "function"
    }
  ],
  "bytecode": "0x608060405234801561001057600080fd5b50611040806100206000396000f3fe608060405234801561001057600080fd5b506004361061007d5760003560e01c8063641f4d4a1161005b578063641f4d4a146100e1578063a2e34586146100f4578063ac66a77e1461011a578063bf0c4bf11461013a57600080fd5b80630891ea73146100825780635d2a4c71146100a8578063629058ca146100bd575b600080fd5b610095610090366004610b72565b610142565b6040519081526020015b60405180910390f35b6100bb6100b6366004610c58565b610518565b005b6100d06100cb366004610c7a565b61059a565b60405161009f959493929190610d14565b6100956100ef366004610d94565b6107fc565b610107610102366004610c7a565b61082d565b60405161009f9796959493929190610dbe565b61012d610128366004610e0c565b6108fd565b60405161009f9190610e2e565b600054610095565b60008085511161018e5760405162461bcd60e51b815260206004820152601260248201527112541194c81a185cda081c995c5d5a5c995960721b60448201526064015b60405180910390fd5b600084116101de5760405162461bcd60e51b815260206004820152601c60248201527f5072696365206d7573742062652067726561746572207468616e2030000000006044820152606401610185565b600083511161022f5760405162461bcd60e51b815260206004820152601d60248201527f4174206c65617374206f6e652063726561746f722072657175697265640000006044820152606401610185565b815183511461028c5760405162461bcd60e51b815260206004820152602360248201527f43726561746f727320616e6420736861726573206c656e677468206d69736d616044820152620e8c6d60eb1b6064820152608401610185565b6000805b835181101561034d5760006001600160a01b03168582815181106102b6576102b6610e41565b60200260200101516001600160a01b0316036103145760405162461bcd60e51b815260206004820152601760248201527f496e76616c69642063726561746f7220616464726573730000000000000000006044820152606401610185565b83818151811061032657610326610e41565b6020026020010151826103399190610e6d565b91508061034581610e86565b915050610290565b50806064146103975760405162461bcd60e51b81526020600482015260166024820152750536861726573206d7573742073756d20746f203130360541b6044820152606401610185565b6000805481806103a683610e86565b90915550604080516101208101825282815260208082018b81528284018b9052336060840152608083018a905260a08301899052600060c084018190524260e08501526001610100850181905286825292839052939093208251815592519394509092908201906104179082610f28565b506040820151600282015560608201516003820180546001600160a01b0319166001600160a01b0390921691909117905560808201518051610463916004840191602090910190610969565b5060a0820151805161047f9160058401916020909101906109ce565b5060c0820151600682015560e08201516007820155610100909101516008909101805460ff1916911515919091179055336000818152600260209081526040808320805460018101825590845291909220018390555182907fa6b5667f3c045e0b24095d79d5475d2f05a3809157c4828925c521129472ba7690610506908b904290610fe8565b60405180910390a39695505050505050565b60008281526001602052604090206008015460ff166105705760405162461bcd60e51b8152602060048201526014602482015273151c9858dac8191bd95cc81b9bdd08195e1a5cdd60621b6044820152606401610185565b60008281526001602052604081206006018054839290610591908490610e6d565b90915550505050565b6000818152600160205260408120600801546060919082908190839060ff166105fc5760405162461bcd60e51b8152602060048201526014602482015273151c9858dac8191bd95cc81b9bdd08195e1a5cdd60621b6044820152606401610185565b60008681526001602081815260408084208151610120810190925280548252928301805491939284019161062f90610e9f565b80601f016020809104026020016040519081016040528092919081815260200182805461065b90610e9f565b80156106a85780601f1061067d576101008083540402835291602001916106a8565b820191906000526020600020905b81548152906001019060200180831161068b57829003601f168201915b50505050508152602001600282015481526020016003820160009054906101000a90046001600160a01b03166001600160a01b03166001600160a01b031681526020016004820180548060200260200160405190810160405280929190818152602001828054801561074357602002820191906000526020600020905b81546001600160a01b03168152600190910190602001808311610725575b505050505081526020016005820180548060200260200160405190810160405280929190818152602001828054801561079b57602002820191906000526020600020905b815481526020019060010190808311610787575b50505091835250506006820154602080830191909152600783015460408084019190915260089093015460ff16151560609092019190915282015190820151608083015160a084015160c090940151929b919a509850919650945092505050565b6002602052816000526040600020818154811061081857600080fd5b90600052602060002001600091509150505481565b60016020819052600091825260409091208054918101805461084e90610e9f565b80601f016020809104026020016040519081016040528092919081815260200182805461087a90610e9f565b80156108c75780601f1061089c576101008083540402835291602001916108c7565b820191906000526020600020905b8154815290600101906020018083116108aa57829003601f168201915b5050506002840154600385015460068601546007870154600890970154959692956001600160a01b039092169450925060ff1687565b6001600160a01b03811660009081526002602090815260409182902080548351818402810184019094528084526060939283018282801561095d57602002820191906000526020600020905b815481526020019060010190808311610949575b50505050509050919050565b8280548282559060005260206000209081019282156109be579160200282015b828111156109be57825182546001600160a01b0319166001600160a01b03909116178255602090920191600190910190610989565b506109ca929150610a09565b5090565b8280548282559060005260206000209081019282156109be579160200282015b828111156109be5782518255916020019190600101906109ee565b5b808211156109ca5760008155600101610a0a565b634e487b7160e01b600052604160045260246000fd5b604051601f8201601f1916810167ffffffffffffffff81118282101715610a5d57610a5d610a1e565b604052919050565b600067ffffffffffffffff821115610a7f57610a7f610a1e565b5060051b60200190565b80356001600160a01b0381168114610aa057600080fd5b919050565b600082601f830112610ab657600080fd5b81356020610acb610ac683610a65565b610a34565b82815260059290921b84018101918181019086841115610aea57600080fd5b8286015b84811015610b0c57610aff81610a89565b8352918301918301610aee565b509695505050505050565b600082601f830112610b2857600080fd5b81356020610b38610ac683610a65565b82815260059290921b84018101918181019086841115610b5757600080fd5b8286015b84811015610b0c5780358352918301918301610b5b565b60008060008060808587031215610b8857600080fd5b843567ffffffffffffffff80821115610ba057600080fd5b818701915087601f830112610bb457600080fd5b8135602082821115610bc857610bc8610a1e565b610bda601f8301601f19168201610a34565b8281528a82848701011115610bee57600080fd5b8282860183830137600092810182019290925290965087013594506040870135915080821115610c1d57600080fd5b610c2988838901610aa5565b93506060870135915080821115610c3f57600080fd5b50610c4c87828801610b17565b91505092959194509250565b60008060408385031215610c6b57600080fd5b50508035926020909101359150565b600060208284031215610c8c57600080fd5b5035919050565b6000815180845260005b81811015610cb957602081850181015186830182015201610c9d565b506000602082860101526020601f19601f83011685010191505092915050565b600081518084526020808501945080840160005b83811015610d0957815187529582019590820190600101610ced565b509495945050505050565b60a081526000610d2760a0830188610c93565b6020838101889052838203604085015286518083528782019282019060005b81811015610d6b5784516001600160a01b031683529383019391830191600101610d46565b50508481036060860152610d7f8188610cd9565b93505050508260808301529695505050505050565b60008060408385031215610da757600080fd5b610db083610a89565b946020939093013593505050565b87815260e060208201526000610dd760e0830189610c93565b6040830197909752506001600160a01b03949094166060850152608084019290925260a0830152151560c09091015292915050565b600060208284031215610e1e57600080fd5b610e2782610a89565b9392505050565b602081526000610e276020830184610cd9565b634e487b7160e01b600052603260045260246000fd5b634e487b7160e01b600052601160045260246000fd5b80820180821115610e8057610e80610e57565b92915050565b600060018201610e9857610e98610e57565b5060010190565b600181811c90821680610eb357607f821691505b602082108103610ed357634e487b7160e01b600052602260045260246000fd5b50919050565b601f821115610f2357600081815260208120601f850160051c81016020861015610f005750805b601f850160051c820191505b81811015610f1f57828155600101610f0c565b5050505b505050565b815167ffffffffffffffff811115610f4257610f42610a1e565b610f5681610f508454610e9f565b84610ed9565b602080601f831160018114610f8b5760008415610f735750858301515b600019600386901b1c1916600185901b178555610f1f565b600085815260208120601f198616915b82811015610fba57888601518255948401946001909101908401610f9b565b5085821015610fd85787850151600019600388901b60f8161c191681555b5050505050600190811b01905550565b604081526000610ffb6040830185610c93565b9050826020830152939250505056fea2646970667358221220e73a847154433a7b83ff44f8c516d4624d22b8d68dd2f41346a2a8895f630dee64736f6c63430008140033",
  "linkReferences": {},
  "deployedLinkReferences": {}
}