{
  "_format": "hh-sol-artifact-1",
  "contractName": "RoyaltyDistributor",
  "sourceName": "contracts/RoyaltyDistributor.sol",
  "abi": [
    {
      "inputs": [
        {
          "internalType": "address",
          "name": "_trackRegistry",
          "type": "address"
        }
      ],
      "stateMutability": "nonpayable",
      "type": "constructor"
    },
    {
      "anonymous": false,
      "inputs": [
        {
          "indexed": true,
          "internalType": "uint256",
          "name": "trackId",
          "type": "uint256"
        },
        {
          "indexed": false,
          "internalType": "uint256",
          "name": "amount",
          "type": "uint256"
        },
        {
          "indexed": false,
          "internalType": "uint256",
          "name": "timestamp",
          "type": "uint256"
        }
      ],
      "name": "RoyaltiesDistributed",
      "type": "event"
    },
    {
      "inputs": [
        {
          "internalType": "uint256",
          "name": "trackId",
          "type": "uint256"
        }
      ],
      "name": "distributeRoyalties",
      "outputs": [],
      "stateMutability": "payable",
      "type": "function"
    },
    {
      "inputs": [
        {
          "internalType": "uint256",
          "name": "trackId",
          "type": "uint256"
        }
      ],
      "name": "getTrackRoyalties",
      "outputs": [
        {
          "internalType": "uint256",
          "name": "",
          "type": "uint256"
        }
      ],
      "stateMutability": "view",
      "type": "function"
    },
    {
      "inputs": [],
      "name": "trackRegistry",
      "outputs": [
        {
          "internalType": "contract ITrackRegistry",
          "name": "",
          "type": "address"
        }
      ],
      "stateMutability": "view",
      "type": "function"
    }
  ],
  "bytecode": "0x608060405234801561001057600080fd5b506040516106f93803806106f983398101604081905261002f91610054565b600080546001600160a01b0319166001600160a01b0392909216919091179055610084565b60006020828403121561006657600080fd5b81516001600160a01b038116811461007d57600080fd5b9392505050565b610666806100936000396000f3fe6080604052600436106100345760003560e01c80631fe915f3146100395780639c3d0d6314610076578063b07cb365146100a4575b600080fd5b34801561004557600080fd5b50600054610059906001600160a01b031681565b6040516001600160a01b0390911681526020015b60405180910390f35b34801561008257600080fd5b50610096610091366004610345565b6100b9565b60405190815260200161006d565b6100b76100b2366004610345565b610136565b005b600080546040516331482c6560e11b81526004810184905282916001600160a01b03169063629058ca90602401600060405180830381865afa158015610103573d6000803e3d6000fd5b505050506040513d6000823e601f3d908101601f1916820160405261012b91908101906104a5565b979650505050505050565b600034116101805760405162461bcd60e51b81526020600482015260136024820152724d7573742073656e6420726f79616c7469657360681b604482015260640160405180910390fd5b600080546040516331482c6560e11b81526004810184905282916001600160a01b03169063629058ca90602401600060405180830381865afa1580156101ca573d6000803e3d6000fd5b505050506040513d6000823e601f3d908101601f191682016040526101f291908101906104a5565b5093509350505060005b82518110156102a1576000606483838151811061021b5761021b6105ac565b60200260200101513461022e91906105d8565b61023891906105f5565b905083828151811061024c5761024c6105ac565b60200260200101516001600160a01b03166108fc829081150290604051600060405180830381858888f1935050505015801561028c573d6000803e3d6000fd5b5050808061029990610617565b9150506101fc565b50600054604051635d2a4c7160e01b8152600481018590523460248201526001600160a01b0390911690635d2a4c7190604401600060405180830381600087803b1580156102ee57600080fd5b505af1158015610302573d6000803e3d6000fd5b5050604080513481524260208201528693507f92c99e401ef01ae0170c8c2e14de1a872383119a766b191a295ec7f5dd90bba792500160405180910390a2505050565b60006020828403121561035757600080fd5b5035919050565b634e487b7160e01b600052604160045260246000fd5b604051601f8201601f1916810167ffffffffffffffff8111828210171561039d5761039d61035e565b604052919050565b600067ffffffffffffffff8211156103bf576103bf61035e565b5060051b60200190565b600082601f8301126103da57600080fd5b815160206103ef6103ea836103a5565b610374565b82815260059290921b8401810191818101908684111561040e57600080fd5b8286015b8481101561043f5780516001600160a01b03811681146104325760008081fd5b8352918301918301610412565b509695505050505050565b600082601f83011261045b57600080fd5b8151602061046b6103ea836103a5565b82815260059290921b8401810191818101908684111561048a57600080fd5b8286015b8481101561043f578051835291830191830161048e565b600080600080600060a086880312156104bd57600080fd5b855167ffffffffffffffff808211156104d557600080fd5b818801915088601f8301126104e957600080fd5b8151818111156104fb576104fb61035e565b602061050f601f8301601f19168201610374565b8281528b8284870101111561052357600080fd5b60005b83811015610541578581018301518282018401528201610526565b50600092810182019290925289015160408a0151919850965091508082111561056957600080fd5b61057589838a016103c9565b9450606088015191508082111561058b57600080fd5b506105988882890161044a565b925050608086015190509295509295909350565b634e487b7160e01b600052603260045260246000fd5b634e487b7160e01b600052601160045260246000fd5b80820281158282048414176105ef576105ef6105c2565b92915050565b60008261061257634e487b7160e01b600052601260045260246000fd5b500490565b600060018201610629576106296105c2565b506001019056fea2646970667358221220e0846101dce0c7b975c99e8fa71db6afd4fb655fde98bad896f7b3aadc94578864736f6c63430008140033",
  "linkReferences": {},
  "deployedLinkReferences": {}
}