{
  "_format": "hh-sol-artifact-1",
  "contractName": "LicenseManager",
  "sourceName": "contracts/LicenseManager.sol",
  "abi": [
    {
      "inputs": [
        {
          "internalType": "address",
          "name": "_trackRegistry",
          "type": "address"
        }
      ],
      "stateMutability": "nonpayable",
      "type": "constructor"
    },
    {
      "anonymous": false,
      "inputs": [
        {
          "indexed": true,
          "internalType": "uint256",
          "name": "licenseId",
          "type": "uint256"
        },
        {
          "indexed": true,
          "internalType": "uint256",
          "name": "trackId",
          "type": "uint256"
        },
        {
          "indexed": true,
          "internalType": "address",
          "name": "licensee",
          "type": "address"
        },
        {
          "indexed": false,
          "internalType": "uint256",
          "name": "timestamp",
          "type": "uint256"
        }
      ],
      "name": "LicensePurchased",
      "type": "event"
    },
    {
      "inputs": [
        {
          "internalType": "uint256",
          "name": "licenseId",
          "type": "uint256"
        }
      ],
      "name": "getLicense",
      "outputs": [
        {
          "internalType": "uint256",
          "name": "trackId",
          "type": "uint256"
        },
        {
          "internalType": "address",
          "name": "licensee",
          "type": "address"
        },
        {
          "internalType": "uint8",
          "name": "licenseType",
          "type": "uint8"
        },
        {
          "internalType": "uint256",
          "name": "purchasedAt",
          "type": "uint256"
        }
      ],
      "stateMutability": "view",
      "type": "function"
    },
    {
      "inputs": [
        {
          "internalType": "address",
          "name": "user",
          "type": "address"
        }
      ],
      "name": "getUserLicenses",
      "outputs": [
        {
          "internalType": "uint256[]",
          "name": "",
          "type": "uint256[]"
        }
      ],
      "stateMutability": "view",
      "type": "function"
    },
    {
      "inputs": [
        {
          "internalType": "uint256",
          "name": "",
          "type": "uint256"
        }
      ],
      "name": "licenses",
      "outputs": [
        {
          "internalType": "uint256",
          "name": "id",
          "type": "uint256"
        },
        {
          "internalType": "uint256",
          "name": "trackId",
          "type": "uint256"
        },
        {
          "internalType": "address",
          "name": "licensee",
          "type": "address"
        },
        {
          "internalType": "enum LicenseManager.LicenseType",
          "name": "licenseType",
          "type": "uint8"
        },
        {
          "internalType": "uint256",
          "name": "purchasedAt",
          "type": "uint256"
        },
        {
          "internalType": "bool",
          "name": "exists",
          "type": "bool"
        }
      ],
      "stateMutability": "view",
      "type": "function"
    },
    {
      "inputs": [
        {
          "internalType": "uint256",
          "name": "trackId",
          "type": "uint256"
        },
        {
          "internalType": "uint8",
          "name": "licenseType",
          "type": "uint8"
        }
      ],
      "name": "purchaseLicense",
      "outputs": [
        {
          "internalType": "uint256",
          "name": "",
          "type": "uint256"
        }
      ],
      "stateMutability": "payable",
      "type": "function"
    },
    {
      "inputs": [],
      "name": "trackRegistry",
      "outputs": [
        {
          "internalType": "contract ITrackRegistry",
          "name": "",
          "type": "address"
        }
      ],
      "stateMutability": "view",
      "type": "function"
    },
    {
      "inputs": [
        {
          "internalType": "address",
          "name": "",
          "type": "address"
        },
        {
          "internalType": "uint256",
          "name": "",
          "type": "uint256"
        }
      ],
      "name": "userLicenses",
      "outputs": [
        {
          "internalType": "uint256",
          "name": "",
          "type": "uint256"
        }
      ],
      "stateMutability": "view",
      "type": "function"
    }
  ],
  "bytecode": "0x608060405234801561001057600080fd5b50604051610c7c380380610c7c83398101604081905261002f91610054565b600080546001600160a01b0319166001600160a01b0392909216919091179055610084565b60006020828403121561006657600080fd5b81516001600160a01b038116811461007d57600080fd5b9392505050565b610be9806100936000396000f3fe6080604052600436106100555760003560e01c80631f706f141461005a5780631fe915f31461008057806333790845146100b8578063454c1d311461012b57806375a106c31461014b578063b2dd121214610178575b600080fd5b61006d610068366004610776565b6101c8565b6040519081526020015b60405180910390f35b34801561008c57600080fd5b506000546100a0906001600160a01b031681565b6040516001600160a01b039091168152602001610077565b3480156100c457600080fd5b506101196100d33660046107ac565b6002602081905260009182526040909120805460018201549282015460038301546004909301549193926001600160a01b0382169260ff600160a01b9093048316921686565b604051610077969594939291906107db565b34801561013757600080fd5b5061006d61014636600461084d565b6105b0565b34801561015757600080fd5b5061016b610166366004610879565b6105e1565b604051610077919061089d565b34801561018457600080fd5b506101986101933660046107ac565b61064d565b604080519485526001600160a01b03909316602085015260ff909116918301919091526060820152608001610077565b600060028260ff16111561021a5760405162461bcd60e51b8152602060048201526014602482015273496e76616c6964206c6963656e7365207479706560601b60448201526064015b60405180910390fd5b600080546040516331482c6560e11b815260048101869052829182916001600160a01b039091169063629058ca90602401600060405180830381865afa158015610268573d6000803e3d6000fd5b505050506040513d6000823e601f3d908101601f191682016040526102909190810190610a1b565b5093509350935050823410156102df5760405162461bcd60e51b8152602060048201526014602482015273125b9cdd59999a58da595b9d081c185e5b595b9d60621b6044820152606401610211565b60018054600091826102f083610b38565b9190505590506040518060c00160405280828152602001888152602001336001600160a01b031681526020018760ff166002811115610331576103316107c5565b6002811115610342576103426107c5565b8152426020808301919091526001604092830181905260008581526002808452908490208551815592850151918301919091559183015181830180546001600160a01b039092166001600160a01b03198316811782556060860151939491926001600160a81b0319161790600160a01b9084908111156103c4576103c46107c5565b0217905550608082015160038281019190915560a0909201516004909101805460ff191691151591909117905533600090815260209182526040812080546001810182559082529181209091018290555b83518110156104ba576000606484838151811061043457610434610b51565b6020026020010151346104479190610b67565b6104519190610b7e565b905084828151811061046557610465610b51565b60200260200101516001600160a01b03166108fc829081150290604051600060405180830381858888f193505050501580156104a5573d6000803e3d6000fd5b505080806104b290610b38565b915050610415565b50600054604051635d2a4c7160e01b8152600481018990523460248201526001600160a01b0390911690635d2a4c7190604401600060405180830381600087803b15801561050757600080fd5b505af115801561051b573d6000803e3d6000fd5b505050508334111561055f57336108fc6105358634610ba0565b6040518115909202916000818181858888f1935050505015801561055d573d6000803e3d6000fd5b505b336001600160a01b031687827f09ff28da0bf2009cff3b4ec31215473ab1bc2f66a54cf6cd4969c4ccddd4ff604260405161059c91815260200190565b60405180910390a493505050505b92915050565b600360205281600052604060002081815481106105cc57600080fd5b90600052602060002001600091509150505481565b6001600160a01b03811660009081526003602090815260409182902080548351818402810184019094528084526060939283018282801561064157602002820191906000526020600020905b81548152602001906001019080831161062d575b50505050509050919050565b60008181526002602052604081206004015481908190819060ff166106ad5760405162461bcd60e51b8152602060048201526016602482015275131a58d95b9cd948191bd95cc81b9bdd08195e1a5cdd60521b6044820152606401610211565b6000858152600260208181526040808420815160c08101835281548152600182015493810193909352808401546001600160a01b0381169284019290925291926060840191600160a01b900460ff169081111561070c5761070c6107c5565b600281111561071d5761071d6107c5565b8152600382015460208083019190915260049092015460ff1615156040918201529082015190820151606083015192935090916002811115610761576107616107c5565b83608001519450945094509450509193509193565b6000806040838503121561078957600080fd5b82359150602083013560ff811681146107a157600080fd5b809150509250929050565b6000602082840312156107be57600080fd5b5035919050565b634e487b7160e01b600052602160045260246000fd5b868152602081018690526001600160a01b038516604082015260c081016003851061081657634e487b7160e01b600052602160045260246000fd5b84606083015283608083015282151560a0830152979650505050505050565b6001600160a01b038116811461084a57600080fd5b50565b6000806040838503121561086057600080fd5b823561086b81610835565b946020939093013593505050565b60006020828403121561088b57600080fd5b813561089681610835565b9392505050565b6020808252825182820181905260009190848201906040850190845b818110156108d5578351835292840192918401916001016108b9565b50909695505050505050565b634e487b7160e01b600052604160045260246000fd5b604051601f8201601f1916810167ffffffffffffffff81118282101715610920576109206108e1565b604052919050565b600067ffffffffffffffff821115610942576109426108e1565b5060051b60200190565b600082601f83011261095d57600080fd5b8151602061097261096d83610928565b6108f7565b82815260059290921b8401810191818101908684111561099157600080fd5b8286015b848110156109b55780516109a881610835565b8352918301918301610995565b509695505050505050565b600082601f8301126109d157600080fd5b815160206109e161096d83610928565b82815260059290921b84018101918181019086841115610a0057600080fd5b8286015b848110156109b55780518352918301918301610a04565b600080600080600060a08688031215610a3357600080fd5b855167ffffffffffffffff80821115610a4b57600080fd5b818801915088601f830112610a5f57600080fd5b815181811115610a7157610a716108e1565b6020610a85601f8301601f191682016108f7565b8281528b82848701011115610a9957600080fd5b60005b83811015610ab7578581018301518282018401528201610a9c565b50600092810182019290925289015160408a01519198509650915080821115610adf57600080fd5b610aeb89838a0161094c565b94506060880151915080821115610b0157600080fd5b50610b0e888289016109c0565b925050608086015190509295509295909350565b634e487b7160e01b600052601160045260246000fd5b600060018201610b4a57610b4a610b22565b5060010190565b634e487b7160e01b600052603260045260246000fd5b80820281158282048414176105aa576105aa610b22565b600082610b9b57634e487b7160e01b600052601260045260246000fd5b500490565b818103818111156105aa576105aa610b2256fea2646970667358221220aea5c2af7ba1778895a5cf13de5e2149af5f02fe79a83b6be75acdda1d6a28ca64736f6c63430008140033",
  "linkReferences": {},
  "deployedLinkReferences": {}
}